:020000040800F2
:10000000C8AC0020B9020008A56200087D530008B2
:1000100001610008F5400008A7D1000800000000B9
:1000200000000000000000000000000079C100088E
:10003000DF46000800000000091B000889C1000815
:10004000E1D2000845BA0008C9C100088FBD000808
:1000500031470008D1BC0008E1460008F546000819
:10006000FF460008094700081347000899460008A2
:10007000A3460008AD460008B7460008C146000880
:10008000CB460008D54600085D1B000851CC00088F
:100090005BCC0008F9400008034100081D47000838
:1000A000D3C10008F1C10008E7C10008DDC10008A4
:1000B000FBC1000805C200080FC200088B530008EE
:1000C000815300089F53000895530008EBBE0008B9
:1000D000F5BE00086FCA000879CA000883CA000884
:1000E000EB46000885BD000847CC0008CF02000899
:1000F000CF020008CF020008CF020008CF0200089C
:10010000CF020008CF020008CF020008CF0200088B
:100110003DCA0008CF020008CF020008CF02000845
:10012000CF020008CF020008CF020008CF0200086B
:1001300000F002F800F0B0F80AA090E8000C824449
:100140008344AAF10107DA4501D100F0A5F8AFF226
:10015000090EBAE80F0013F0010F18BFFB1A43F0A5
:1001600001031847E0DF000000E000000A444FF000
:10017000000C10F8013B13F0070408BF10F8014B06
:100180001D1108BF10F8015B641E05D010F8016B4B
:10019000641E01F8016BF9D113F0080F1EBF10F8AF
:1001A000014BAD1C0C1B09D16D1E58BF01F801CBD2
:1001B000FAD505E014F8016B01F8016B6D1EF9D555
:1001C0009142D6D37047000000230024002500266A
:1001D000103A28BF78C1FBD8520728BF30C148BFAA
:1001E0000B6070476E2900F06B83702900F0CB84A0
:1001F00066290DF0198365290DF0168367290DF026
:1002000013836129AFF3008003681B0A28BF41F004
:100210008001692900F0E080642900F0DD80752903
:1002200000F0DA806F2900F05984782900F0978473
:10023000E92900F0F383E42900F0F083F52900F0C8
:10024000ED83EF2900F05684F82900F096840368C6
:10025000DB0928BF41F08001632900F07483732912
:1002600000F07983E32900F0F586F32900F0FA869F
:10027000002070471FB500F047FF04000020002158
:100280000DF0BCFA401C6060002000210DF0A0FAC7
:10029000E0601FBD10B510BD00F008FF1146FFF76C
:1002A000E9FF0DF007FA00F0E1FF03B4FFF7F2FFFA
:1002B00003BC01F025F8000008480047FEE7FEE710
:1002C000FEE7FEE7FEE7FEE7FEE7FEE7FEE7FEE706
:1002D00003480449044A054B7047000031010008F7
:1002E000C8A60020C8AC0020C8A80020C8A80020CC
:1002F00072B6704762B67047EFF3108072B67047FF
:1003000080F31088704730BF704720BF7047B0FA45
:1003100080F0704790FAA0F0B0FA80F0704790FA41
:10032000A0F070477CB51D4616460C00009001D029
:100330002044401E074B7B442A46694601903046C4
:1003400000F0D7FA05461CB10020694600F0E4FA37
:1003500028467CBDE90500000FB41CB5084B06AA71
:100360007B4469460090059800F0C3FA04460020DB
:10037000694600F0D1FA20461CBC5DF814FB000071
:10038000B505000070B50C460546012A05D0287851
:10039000800600D5EA69002302E0012305E05B1C2A
:1003A000934202D2E05C0028F9D1A869E618C01A8D
:1003B000A861286A18442862284600F0EFF904E092
:1003C000D5E9012114F8010B9047B442F8D328462F
:1003D00000F0FAF970BD00002DE9F0410646002456
:1003E00010687529314616A510D000F0FEF90028D6
:1003F00002DA404213A507E031688A0701D512A549
:1004000002E0490704D511A5012401E000F0F6F946
:1004100000210A2206F1240709E0B0FBF2FCB0FB40
:10042000F2F302FB1C00303078541846491C0028B7
:10043000F3D123462A463046BDE8F04100F0E7B943
:10044000000000002D0000002B0000002000000034
:100450002DE9F05F894604464FF0000ADFF874B1D9
:10046000FB44C0F820A02046E1688847002874D0EB
:10047000252806D0D4E901219047206A401C20623B
:10048000F1E700265F462046E168884720280546B8
:1004900007DB312D05D2781910F8200C08B106437E
:1004A000F1E7B00701D526F00406C4F81CA0002728
:1004B000C4F818A02A2D09D028460DF0F4F838B356
:1004C00004EB8708303DC8F8185019E059F8041BB0
:1004D000204604EB87029161E1688847012F0546B9
:1004E00018D1E069002820DA26F020061DE0D8F8AF
:1004F000180000EB800005EB40003038C8F8180009
:100500002046E168884705460DF0CDF80028EED179
:10051000012F0AD02E2D08D12046E16888477F1C84
:100520000546022F46F02006C4DBA069002803DA46
:10053000404246F00106A061F00701D026F0100607
:100540006C2D0BD0682D09D04C2D39D06A2D35D0AB
:10055000742D35D07A2D33D016E038E0E1682F467F
:1005600020468847B842054609D16C2F26D04FF463
:100570008060E168064320468847054604E06C2F0A
:100580001AD04FF4807006430DB3A5F1410019282D
:1005900002D8203546F400664A46294620462660A1
:1005A0004E46FFF71FFE80B101280BD0F61D26F046
:1005B000070000F1080956E74020E4E78020D8E76B
:1005C0000020D6E706F104094DE7284652E7206AE5
:1005D000BDE8F09F08DC000010B5431C02E010F8F5
:1005E000011B71B18107FAD14FF0013202C88C1A98
:1005F0008C4314EAC211F9D0C01A0A0603D0C01EF7
:1006000010BDC01A10BD0A0401D0801E10BD090221
:10061000FCD0401E10BD032A40F2308010F0030CC5
:1006200000F0158011F8013BBCF1020F624498BF45
:1006300011F801CB00F8013B38BF11F8013BA2F1E2
:10064000040298BF00F801CB38BF00F8013B11F05D
:10065000030300F02580083AC0F0088051F8043BFD
:10066000083A51F804CBA0E80810F5E7121D5CBF6A
:1006700051F8043B40F8043BAFF30080D20724BF9D
:1006800011F8013B11F801CB48BF11F8012B24BF31
:1006900000F8013B00F801CB48BF00F8012B704780
:1006A00010B5203AC0F00B80B1E81850203AA0E80D
:1006B0001850B1E81850A0E81850BFF4F5AF5FEA41
:1006C000027C24BFB1E81850A0E8185044BF18C9F4
:1006D00018C0BDE810405FEA827C24BF51F8043B9B
:1006E00040F8043B08BF7047D20728BF31F8023BEF
:1006F00048BF11F8012B28BF20F8023B48BF00F883
:10070000012B70474FF000020429C0F0128010F056
:10071000030C00F01B80CCF1040CBCF1020F18BFDD
:1007200000F8012BA8BF20F8022BA1EB0C0100F070
:100730000DB85FEAC17C24BF00F8012B00F8012B43
:1007400048BF00F8012B70474FF0000200B5134678
:1007500094469646203922BFA0E80C50A0E80C50E1
:10076000B1F12001BFF4F7AF090728BFA0E80C5092
:1007700048BF0CC05DF804EB890028BF40F8042B8B
:1007800008BF704748BF20F8022B11F0804F18BFF8
:1007900000F8012B704770477047704770B50446EA
:1007A00085690068C10601D5302600E02026C00713
:1007B00007D070BDD4E9012130469047206A401C23
:1007C00020626D1EF6D570BD70B50446856900784F
:1007D000C00707D170BDD4E9012120209047206ACD
:1007E000401C20626D1EF6D570BD09684A0501D512
:1007F00040B27047C905FCD500B2704709684A0588
:1008000001D5C0B27047C905FCD580B270472DE94B
:10081000F0470D4699469246044600F124080168C7
:10082000880604D5E06921F01001216000E0012074
:10083000A84201DD471B00E00027A1697A1902EBFD
:100840000900081AA0612078C00602D42046FFF7EC
:10085000A5FF002608E0D4E901211AF80600904718
:10086000206A401C761C20624E45F4DB2078C006CE
:100870000AD52046FFF792FF06E0D4E90121302097
:100880009047206A401C2062381EA7F10107F4DC63
:1008900007E0D4E9012118F805009047206A401CC0
:1008A0002062281EA5F10105F3DC2046FFF78CFF2E
:1008B0002078000602D50220BDE8F0870120FBE782
:1008C00011680268006A530501D508700AE0D30573
:1008D00001D5088006E0130603D5C217C1E900025E
:1008E00000E008600120704701694A1C0261087835
:1008F000704700B58FB0CDE9013100210591054960
:100900007944CDE9031011466846FFF7A1FD0FB009
:1009100000BD0000E5FFFFFF0A6802F8010B0A6056
:100920007047D1E900239A4202D2531C0B60107029
:10093000704710B5436913B1AFF3008001E0FFF7D2
:1009400021FD012010BD127800F124010A7000225F
:100950004A700122EDE711684FF0FF32E9E700002D
:100960002DE9FF5F15468A460446DFF8AC80F8445F
:100970000027D8E900103E46CDE9001010E03AF813
:1009800016106A4602A800F071FB411C07D02178BE
:10099000890603D5E269391891420DD80744761CBF
:1009A0002078800602D5E069B84205DDAE42E6DB7C
:1009B0003AF816000028E2D1A069C01BA0612046C9
:1009C000FFF7ECFED8E90010CDE90010002017E099
:1009D0003AF818106A4602A800F048FBB0F1FF3F51
:1009E00081460BD000250DF1080B05E0D4E901216B
:1009F0001BF8050090476D1C4D45F7D308F1010029
:100A0000B0428046E4DB206A384420622046FFF78B
:100A1000DBFEBDE8FF9F00000ED700002DE9F0418E
:100A20008046D21D22F007020025D2E90002F529F6
:100A300015A614D0011E72F1000106DA0023D0EBD6
:100A4000030063EB020211A608E0D8F800108B0740
:100A500001D50FA602E0490701D50EA601251146D2
:100A6000002408F1240704E000F098F830323A55E9
:100A7000641C50EA0102F7D12B463246214640461B
:100A8000BDE8F041FFF7C3BE000000002D000000EC
:100A90002B0000002000000030B4002100F12404ED
:100AA00008E002F00705D208303542EA4372DB085D
:100AB0006554491C52EA0305F3D10468002310A2CF
:100AC000250708D504F020040C4304D0C469012391
:100AD0000CA2641EC46130BCFFF799BE10B5044679
:100AE00021461068FFF78AFE02462046BDE8104006
:100AF0000023D1E7D21D22F00701D1E90023CBE783
:100B00000000000030000000F0B40D460188090527
:100B100002D5214C7C4402E01F4C7C440E34002161
:100B200000F1240608E002F00F071209E75D42EA2F
:100B300003721B097754491C52EA0307F3D1027868
:100B40000023120704D5702D06D009B102231134F9
:100B50002246F0BCFFF75BBE01231034F8E770B506
:100B600004460D4621461068FFF748FE0246294616
:100B70002046BDE870400023C6E7D21D22F00703DF
:100B8000D3E90023C0E70368126843F02003036041
:100B90000823C3610023B7E770D5000030B5B0F17A
:100BA0000A024FEA900E71F100034EEA817EB0EB2B
:100BB0000E0061EB91014FEA101E4EEA017E10EB30
:100BC0000E0041EB11114FEA102E4EEA016E10EBB0
:100BD0000E0041EB11214FEA104E4EEA014E10EB90
:100BE0000E0041EB1141401841F100014FEAD000E5
:100BF00040EA41704FEAD10110EB80054FEA8104D1
:100C000044EA907444EB01046D1944EB0404521B54
:100C1000A3414FF0000348BF0A3200D530BD401C4D
:100C200041F1000130BD70472DE9FF4F0C461E46D3
:100C30004FF0FF378BB0D2E90001DDF860800A90F9
:100C40008A46C1F30A5505B93D46002108464FF0D2
:100C50000000BAF1000F00F4400005DA00EB80005C
:100C60004FF4400101EA50004FEA9059B9F1010FE9
:100C700000DDB9460A9850EA4A000ED044F61050FA
:100C8000A5F2FF3545432F14B8F1000F1ED0754271
:100C9000291E1EDDC9F100021CE0B8F1010F4FF062
:100CA000000001D0302103E0F24305E02154401C54
:100CB000B042FBDB30460022002121540B99C1F8E1
:100CC0000880C1E900200FB0BDE8F08FBD1B6D1C8E
:100CD000DEE74A4600DA694206A800F059FA06AB98
:100CE00093E8070003AB83E8070050460A9900F039
:100CF0000EFB8DE80700A0F500501F380090039808
:100D0000002D09DD42F21F014A46084403A9039061
:100D1000684600F06DFD08E0A0F500504A461F3817
:100D200003A90390684600F077FD8DE807000004F2
:100D3000000C03D04FF0FF30410800E01046B8F13E
:100D4000000F03D00022009215461EE0751E05D448
:100D5000FFF724FF303262556D1EF9D5B3460122EC
:100D6000084302D000227F1C04E02078302801D103
:100D700000227F1E002A099786D01DE0112D07DA78
:100D8000FFF70CFF303262556D1C50EA0102F5D1BD
:100D9000084302D00098C8B10EE00021681E05E0AB
:100DA000235C625C63542254401E491C8142F7DB81
:100DB000AB46A81B401E0990002004F80B000B98BE
:100DC000099AC0F80880C0E9002B7CE711264FF093
:100DD000000859E72DE9F04F88460446D21D22F05D
:100DE000070191B0D1E90001CDE90A010CF047FCFF
:100DF00002460B98C00F01D02D2007E02068810724
:100E000001D52B2002E0202101EAC000032A09902D
:100E100001D0072A05DB03464146204600F078F959
:100E20000BE12078800601D5E06900E00620B8F1EA
:100E3000650F814606D0B8F1660F18D0B8F1670F7C
:100E400070D131E00020B9F1110F009001DB1123C6
:100E500001E009F101030AAA01A90CA8FFF7E4FEC9
:100E6000DDE90C70002609F10105834647E0012009
:100E70004B4600904FF000470AAA01A90CA8FFF7C3
:100E8000D3FEDDE90DB00C995D46002610B909F1DD
:100E900001000D18B9EB050003D4C0F1FF3609F1CC
:100EA0000105A5EB09002BE0B9F1010F01DA4FF0C4
:100EB00001090020B9F1110F0090484601DD11230E
:100EC00000E003460AAA01A90CA8FFF7ADFEDDE980
:100ED0000C704D4600268346207800070AD4AB45A7
:100EE00000DA5D4601A8012D04DD411911F8011C4D
:100EF000302907D04F4502DA17F1040F04DA012038
:100F000082460FE06D1EEEE7002F02DCED1B3E4433
:100F100003E0781CA84200DD7D1CB81B00F1010A2B
:100F20004FF000472078000703D4AA4501DB4FF0BB
:100F3000FF3A0021B7F1004F0DF143088DF843103F
:100F400024D002202B23002F01DA7F422D230A21F7
:100F5000021EA0F1010000DC5FB197FBF1FC97FBE2
:100F6000F1F201FB1C7C17460CF1300C08F801CDA6
:100F7000EEE7A8F1010003702188090501D545219C
:100F800000E06521A0F1010800F8011C09980FA9F3
:100F9000A1EB0807FF1D00B10120411901EBEA7028
:100FA000A1693844081A401EA0612078C00602D406
:100FB0002046FFF7F3FB099828B1D4E901219047B7
:100FC000206A401C20622078C00622D52046FFF708
:100FD000E5FB1EE0002E04DBB34502DD01A8805DC9
:100FE00000E03020D4E901219047206A401C2062B3
:100FF000761CAAF101005FEA000A0AD100F084F829
:10100000C0680168405CD4E901219047206A401C17
:101010002062281EA5F10105DCDC07E0D4E90121EE
:1010200018F8010B9047206A401C2062381EA7F177
:101030000107F3DC2046FFF7C7FB032011B043E6AE
:1010400010B5436913B1AFF3008001E0FFF788FCEE
:10105000012010BD128800F1240182840022C28484
:101060000122EDE711684FF0FF32E9E770B516464F
:101070000C46054600F040F8036893F8010101288A
:1010800006D0FF2C0FD8185D68B101202C7070BD00
:10109000D3F807013246214603F2071303442846DA
:1010A000BDE8704018474FF0FF3070BD754600F046
:1010B000E3F8AE4605006946534620F00700854632
:1010C00018B020B5FFF704F9BDE820404FF0000646
:1010D0004FF000074FF000084FF0000B21F0070120
:1010E000AC46ACE8C009ACE8C009ACE8C009ACE863
:1010F000C0098D467047000010B500F005F8001DCE
:1011000010BD00BFF9C600000048704784A600204B
:101110002DE9F0411F46044603260168072A01F421
:10112000006004DB08B116A505E016A503E008B1D0
:1011300015A500E015A521F010002060A069C01ED3
:10114000A0610FB1401EA0612046FFF727FB4FB101
:10115000D4E9012138469047206A401C2062C01C17
:10116000206206E0206AFAE7D4E9012115F8010BB4
:101170009047761EF8D22046FFF726FBBDE8F081A7
:101180004E414E006E616E00494E4600696E66002B
:101190002DE9F047814616468AB0334878440DC899
:1011A0008DE80D0030487844801C03AC0DC884E8FD
:1011B0000D0041F69B300844372190FBF1F290FB83
:1011C000F1F5A5F1800501FB12041B3C02D5644238
:1011D000012000E00020DFF890A080460027FA44BC
:1011E000AAF1BE0A0DE0E00709D03246684607EBD7
:1011F00047010AEB810100F00FFB8DE80700641046
:101200007F1C002CEFD1184F7F44AC3F18E0E8075B
:1012100014D007EB04100DF1180A90E80E008AE8CC
:101220000E00C068F04201D198190890324606A914
:1012300003A800F0F1FA03AB83E807006D10641C0B
:10124000002DE4D132466946B8F1000F03A802D060
:1012500000F0CEFA01E000F0DFFAC9E90001C9F8B8
:1012600008200AB0BDE8F0878CCF00000446AFF339
:1012700000802046FFF719F80048704764A6002058
:101280004FF0013C50F8042B51F8043B9A4221D115
:10129000A2EB0C03934313EACC1317D150F8042BA1
:1012A00051F8043B9A4215D1A2EB0C03934313EA85
:1012B000CC130BD150F8042B51F8043B9A4209D1BE
:1012C000A2EB0C03934313EACC13DBD04FF00000E6
:1012D000704700BFD01A01BAB1FA81F101F01801CC
:1012E00022FA01F0CB40C1F12001DBB2C0B2C01A3A
:1012F0002CFA01F3D11A914311EAC311E6D17047D8
:1013000001491820ABBEFEE72600020070475FEAE5
:10131000400C08BF91F0000F4FEA8C234FEAC12226
:1013200043EA51514FEA1C5018BF00F5F0404FEA14
:10133000300018BF41F000415FEA6C5C00F029808A
:10134000BCF1FF3F08BF40F080407047130C06BF60
:1013500012044FF0100C4FF0000C130E04BF1202D9
:101360000CF1080C130F04BF12010CF1040C930FC5
:1013700004BF92000CF1020CD30F04BF52000CF119
:10138000010C11464FF00002A0F11F00A0EB0C0071
:10139000704711F0004F08BF704731F000413FF433
:1013A000D5AF0B0C06BF09044FF0100C4FF0000C2A
:1013B0000B0E04BF09020CF1080C0B0F04BF09014E
:1013C0000CF1040C8B0F04BF89000CF1020CCB0F45
:1013D00004BF49000CF1010CCCF12003A0EB0C0080
:1013E00022FA03F302FA0CF241EA030100F10100D0
:1013F000704720F07F4C80EA030023F07F47ACEB7E
:10140000070303F57C5300F0004003F1FF032DE9CF
:1014100080494FEA154B09B44FEA144325EA0B4EB5
:1014200024EA03480FF2042606EB132749083E7806
:101430005FEA320203FB0667C7F5000707FB06F603
:101440004FEA54374FEAD64606F1020607FB066C10
:10145000CCF1005C4FEA1C472CEA074C07FB06F472
:101460000CFB06F504EB15464FEA961634BF002038
:101470004FF000404FEAD13706FB07FC4FEA1C4C07
:101480000CFB0BF7D21B03FB0CF761EB07010CFB0A
:101490000EF7B0EB074072EB17420CFB08F734BFB6
:1014A000A2EB0742B2EB074261EB17414FEA0C4453
:1014B0004FEA910706FB07FC4FEA1C4C0CFB0BF7AD
:1014C000B0EBC74072EB573203FB0CF734BFA2EB13
:1014D000C742B2EBC74261EB57310CFB0EF7B0EBE2
:1014E000C70072EB57720CFB08F734BFA2EBC702C0
:1014F000B2EBC70261EB5771039F4FEA816141EA8A
:10150000921104EBCC044FEAD1374FEA826206FB1A
:1015100007FC42EA90124FEA80604FEA1C4C0CFB39
:101520000BF7D21B03FB0CF761EB07010CFB0EF76B
:10153000B0EB074072EB17420CFB08F734BFA2EB8D
:101540000742B2EB074261EB17414FEA8C554FEA75
:10155000910704EB9C2406FB07FC4FEA1C4C0CFB98
:101560000BF7B0EBC74072EB573203FB0CF734BFFD
:10157000A2EBC742B2EBC74261EB57310CFB0EF74F
:10158000B0EBC70072EB57720CFB08F734BFA2EB4D
:10159000C702B2EBC70261EB577115EB4C254FEA5E
:1015A000816141EA92114FEA82624FEAD13742EA01
:1015B000901206FB07FC44F100044FEA80604FEAFA
:1015C0001C4C0CFB0BF7D21B03FB0CF761EB070168
:1015D0000CFB0EF7B0EB074072EB17420CFB08F761
:1015E00034BFA2EB0742B2EB074261EB174115EBA8
:1015F0001C154FEA813141EA92414FEA823242EAB8
:1016000090424FEA80304FEA0C7644F1000448EAF9
:1016100003434EEA0B484FF0000EB2EB080C71EB9F
:10162000030724BF624639464EEB0E0E4FF0000B07
:101630000018524149414BEB0B0BB2EB080C71EB1C
:1016400003077BF1000B24BF624639464EEB0E0EBA
:101650004FF0000B0018524149414BEB0B0BB2EB22
:10166000080C71EB03077BF1000B24BF624639467F
:101670004EEB0E0E51EA020718BF46F0010616EBBC
:101680000E7655F1000254F1000103D5BDE8890141
:10169000BDE80088BDE88901BDE80048B61952419F
:1016A00041EB0101A3F10103704780807F7E7D7CC7
:1016B0007B7A7978777676757473727171706F6EE4
:1016C0006E6D6C6C6B6A6A6968686766666564648F
:1016D000636362616160605F5F5E5E5D5D5C5C5B19
:1016E0005B5A5A5959585857575656555555545488
:1016F000535352525251515050504F4F4F4E4E4DE6
:101700004D4D4C4C4C4B4B4B4A4A4A494949484831
:101710004847474747464646454545444444444371
:1017200043434342424242414141002B26D4770089
:1017300021D01CB54FEA370703B44FF010004FF02B
:1017400010014FF000000FBCBDE810400BF1010B81
:10175000BBF1010F08BF5FEA170722BF12F10102B8
:1017600011F101014FF0004143F1000300F000408E
:1017700043EA00007047F9D35708DAE746EA06461D
:1017800013F1400F4FEA16461FDD13F1200FDFBFA4
:1017900016430A46002120335B42C8D0C3F120071C
:1017A00046EA064602FA07F74FEA164646EA0706F1
:1017B000C3F1200722FA03F201FA07F721FA03F135
:1017C0004FF0000342EA0702B1E746EA020646EAA2
:1017D00006464FEA164646EA0106BCBF46EA0646FA
:1017E000360C4FF000034FF000024FF000019EE76F
:1017F0002DE9C048934630B491E8380007C831EA73
:10180000400C48BF34EA430C03D5FFF7F2FDFFF765
:101810008CFFF0BCBDE800882DE9C048934630B489
:1018200091E8380007C810F0804F08BF13F0804FD0
:1018300003D100F005F8FFF778FFF0BCBDE80088A1
:1018400020F07F4780EA030023F07F4C07EB0C0376
:10185000A3F57C5300F00040A3F1FE0392F0000FCB
:1018600000F0B38095F0000F00F077802DE901497A
:101870004FEA11404FEA144621EA004800FB06FCFB
:1018800024EA064708FB06F607FB08F800FB07F703
:1018900018EB06484CEB164C4FEA124B18EB074876
:1018A0004FEA15464CEB174022EA0B4E0BFB06FCA9
:1018B00025EA06470EFB06F607FB0EFE0BFB07F7B5
:1018C0001EEB064E4CEB164C4FF000061EEB074E7F
:1018D0004CEB174B18EB0B0840F1000018EB0E0B0C
:1018E00058EB000840F100008F1A4FF000013CBF98
:1018F000C943661B14BFB5EB040C00213CBFC943B0
:10190000F61B4FEA17444EEA8E0E27EA04454FEACB
:101910001C4704FB07622CEA074C05FB07F70CFB8E
:1019200005F604FB0CFC16EB074642EB174216EBE0
:101930000C4642EB1C421BEB060658EB02024141EF
:1019400046EA9E0601D5BDE80189B619524141EB30
:101950000101A3F10103BDE801894FEA14454FEAF3
:10196000114724EA054621EA074C05FB07F406FB6C
:1019700007F70CFB06F105FB0CFC11EB074144EBF0
:1019800017444FEA124711EB0C4144EB1C4422EA86
:10199000074C05FB07F206FB07F70CFB06F605FBF9
:1019A0000CFC16EB074642EB174216EB0C4642EBDB
:1019B0001C456A1854F1000148BF7047B6195241DE
:1019C00041EB0101A3F10103704795F0000F37D0FF
:1019D0004FEA11424FEA144721EA024624EA074C33
:1019E00002FB07F106FB07F70CFB06F402FB0CFCFD
:1019F00014EB074441EB17414FEA154714EB0C4435
:101A000041EB1C4125EA074C02FB07F506FB07F7F3
:101A10000CFB06F602FB0CFC16EB074645EB1745E4
:101A200016EB0C4645EB1C42121951F1000148BF60
:101A30007047B619524141EB0101A3F10103704710
:101A40004FEA14454FEA114724EA054621EA074CBC
:101A500005FB07F106FB07F70CFB06F24FF000064B
:101A600005FB0CFC12EB074241EB174112EB0C4259
:101A700051EB1C4148BF7047921841EB0101A3F1A3
:101A80000103704772B64EF62250CEF2000040F2CB
:101A9000FF01C0F20001017040F26010C2F20000CC
:101AA000016881F3088840F2B200C2F2000040F2FF
:101AB000B301C2F200010A78027040F23C15C2F292
:101AC000000540F24011C2F200010A682A60106865
:101AD00080F30988EFF3148040F0020080F314884B
:101AE000BFF36F8FBDE8F00F0FBCBDE8005006BC20
:101AF00062B6084718484FF0805101607047164899
:101B00004FF080510160704772B6EFF3098020E911
:101B1000F00F40F23C15C2F200052E6830607446AA
:101B200006F0DAFB40F2B200C2F2000040F2B3016C
:101B3000C2F200010A78027040F24011C2F20001C4
:101B40000A682A6044F0F40E1068B0E8F00F80F3E1
:101B5000098862B67047000004ED00E010B512205D
:101B600001F0F2FB10BD00002DE9F04705460E46DE
:101B7000174600BF002130480AF0C1F902202F4962
:101B8000C88001200881082088812B480AF0E1F9EB
:101B9000012129480AF0B3F900BF002447E01020D2
:101BA0002749086000BF022123480AF0B4F9002841
:101BB000F9D024B9314620480AF0C9F903E00021E0
:101BC0001D480AF0C4F910201D49091D086000BF16
:101BD000012119480AF09FF90028F9D016480AF0A7
:101BE000B3F980464FF00A0901E0A9F10109144850
:101BF0000838006800F04000402802D1B9F1000F19
:101C0000F3D124B9304600F029F8804603E00020E3
:101C100000F024F88046012C07DDA01E27F8108074
:101C2000A11EC8B2414600F033F8601CC4B2A81C23
:101C30008442B4DBBDE8F0870030014050A60020AC
:101C40001008014010B500200AF0A2F90248002156
:101C50000160416010BD00006401002010B5044621
:101C600000BF022109480AF056F90028F9D02146A0
:101C700006480AF06CF900BF012104480AF04BF94C
:101C80000028F9D001480AF05FF910BD003001408A
:101C9000082813DA00EB8002094B03EB4202094BE0
:101CA0001B5C22F81310074A125C521C054B1A5495
:101CB0001A46125C052A01DB00221A547047000004
:101CC000209D0020640100202DE9F04186B00546EA
:101CD0000E46174601AC4AF655202080062060804B
:101CE000A4F80550022020710120E07126722046E0
:101CF00002F019FD6772618802A802F0ADFC80460F
:101D00004FEA2821A17284F80B806088801D82B27E
:101D100001A9032002F0D4F806B0BDE8F08100006C
:101D20008EB00EA001F0C6FF02F02EF9FFF78AFF79
:101D300043F6F74410E04FF6FF7000EA840103AA6F
:101D40000220FFF711FF0DA800210B460122CDE96B
:101D50000010084606F0B4FBEDE700004372656131
:101D600074696E6720414443205461736B732E2E57
:101D70002E0A0D000EB507A001F09CFF08E002A896
:101D800000210B460522CDE90010084606F098FB1D
:101D9000F5E700004372656174696E6720636C65E6
:101DA000616E20666C6F7720436F6E74726F6C206B
:101DB0005461736B732E2E2E0A0D00000EB51BA0FE
:101DC00001F078FF002003F065FC002003F0ECFF39
:101DD00003F038FC0021084604F06AF925E002A867
:101DE000002144230A46CDE90010194804F07AFF87
:101DF0000446BDF8080028B1BDF8081015A001F090
:101E000059FF12E00221002004F052F925462878FB
:101E1000012802D02878022802D1204602F0B0FD25
:101E200044212046FEF76EFC00BFD8E7437265618F
:101E300074696E67204D6F746F7220436F6E747299
:101E40006F6C205461736B732E2E2E0A0D000000F0
:101E5000389B00206661696C20746F206765742070
:101E60006D747231206D7367205B25645D0A0D000F
:101E700070470000ADF5187DF9A001F01BFF0E942E
:101E80002AE297A8002144230A46CDE90010FE4823
:101E900004F028FF0746BDF85C0200B11CE2B94619
:101EA00099F800B099F806000D9099F8071099F884
:101EB000080001EB002080B20C9099F80A80B8F17C
:101EC000620F05D1002117A80AF0BEFB0E9019E0A1
:101ED000B8F17A0F05D1012117A80AF0B5FB0E90D1
:101EE00010E0B8F1720F05D1022117A80AF0ACFB7F
:101EF0000E9007E0B8F16A0F04D1032117A80AF089
:101F0000A3FB0E9001200AF039F9B8F1620F02D05C
:101F1000B8F16A0F21D103A804F0F4F801281CD00D
:101F2000BBF1010F15D10D98012812D18DF81000C9
:101F3000BDF80C00C0B28DF81100BDF80C00001205
:101F40008DF8120003252B4604AA41460C9809F08F
:101F500097FF00200AF012F9BEE10024A4E1002559
:101F600017A8005D212813D008DC11287CD0172881
:101F700076D0182875D0192874D1D2E0222806D03E
:101F8000232806D03C286ED05028F5D142E100BF6E
:101F900000BF17A8005D222801D105260AE017A876
:101FA000005D212801D1042604E017A8005D232844
:101FB00000D1032617A908190FAA314609F00AFD16
:101FC00000F0FF0ABAF1090F3CD90220AF4981F8AD
:101FD0008800084680F889A090F889200FA98A30E7
:101FE000FEF719FB97A800234422A84988310090E6
:101FF000A548303804F096FF97AA0021A44805F0C0
:1020000099FA97A800231A4644F620610090A04848
:1020100005F036F9BDF85C0210B9A01984B20BE0E6
:1020200001208DF81000012517A8011932464B3800
:10203000FEF7F1FAA81985B297AA0021944805F095
:1020400079FA0BE0FF208DF81000012517A801197F
:1020500032464B38FEF7DFFAA81985B2F0E003E00C
:102060005DE05DE0EBE0CBE0022609F095FE0228A2
:1020700054D017A908190FAA314609F0ABFC00F09B
:10208000FF0ABAF1090F3DD90220804908700846BD
:1020900080F801A042780FA9801CFEF7BCFA97A82F
:1020A00000234422794900907748903804F03AFFA1
:1020B00097AA0021774805F03DFA97A800231A4611
:1020C00041F270710090734805F0DAF8BDF85C02D7
:1020D00030B909F061FE012802D1A01984B20BE0E9
:1020E00001208DF81000012517A8011932464B3840
:1020F000FEF791FAA81985B297AA0021654805F064
:1021000019FA0BE0FF208DF81000012517A801191E
:1021100032464B38FEF77FFAA81985B290E000BF2F
:1021200000BF17A8005D172801D102260AE017A8F2
:10213000005D182801D1042604E017A8005D1928C5
:1021400000D104260BF0D2F8022858D017A908199C
:102150000FAA314609F03EFC00F0FF0ABAF1090F60
:1021600040D90220494981F84400084680F845A03A
:1021700090F845200FA94630FEF74DFA97A80023A6
:1021800044224249443100903F48603804F0CAFE7E
:1021900097AA0021404805F0CDF997A800231A46D8
:1021A0003E4900903C4805F06BF8BDF85C0230B940
:1021B0000BF09CF8012802D1A01984B20CE0012098
:1021C0008DF81000681C85B217A8011932464B38EB
:1021D000FEF721FAA81985B297AA00212E4805F02A
:1021E000A9F90CE0FF208DF81000681C85B217A833
:1021F000011932464B38FEF70EFAA81985B21FE0D6
:1022000017AA611C5018002204210BF001F8601D70
:1022100084B215E017AA611C525C17ABA11C595C73
:1022200002EB0122E11C595C02EB0142211D595CC9
:1022300002EB016001F0B2F9601D84B200E000BF62
:1022400000BF002D2CDDBBF1010F08D10D98012836
:1022500005D12B4604AA41460C9809F011FE24E052
:102260004372656174696E67207072696D6520667E
:102270006C6F7720436F6E74726F6C205461736B58
:10228000732E2E2E0A0D0000689B0020989B0020C4
:10229000A89C0020D09C0020F89C0020E093040023
:1022A0000E98844200DB00E059E600BFBBF1010F4D
:1022B0000ED10D9801280BD155B900208DF81000D2
:1022C000681C85B22B4604AA41460C9809F0D8FD3B
:1022D000002009F053FF00BFD3E500000EB5002039
:1022E00009F0B4FD24E002A8002144230A46CDE908
:1022F0000010104804F0F6FC0446BDF8080028B1B0
:10230000BDF808100CA001F0D5FC11E0022009F086
:102310009DFD25462878012802D02878022802D180
:10232000204602F007FD44212046FEF7EBF900BFEE
:10233000D9E70000D89A00206661696C20746F208C
:10234000676574206D7367205B25645D0A0D00006E
:102350000EB516A001F0AEFC00200BF03BF924E016
:1023600002A8002144230A46CDE90010184804F0D1
:10237000B9FC0446BDF8080028B1BDF8081015A046
:1023800001F098FC11E025462878012802D0287831
:10239000022805D102200BF01DF9204602F016FE9E
:1023A00044212046FEF7AEF900BFD9E743726561CC
:1023B00074696E6720537972696E676520436F6E2A
:1023C00074726F6C205461736B732E2E2E0A0D0085
:1023D000089B00206661696C20746F20676574201B
:1023E000737972696E6765206D7367205B25645D24
:1023F0000A0D000000B58BB00AA803210022059247
:10240000CDE90621089005204FF400713322C94B15
:10241000CDE90132CDE9031003200023C64AC7A14C
:102420000090CA4805F03CFABDF8280020B1BDF87C
:102430002810C7A001F03EFC0AA803210022059243
:10244000CDE90621089005214FF400723323CA48D4
:10245000CDE902320491019004200023C74AC8A1AB
:102460000090BA48CC3005F01BFABDF8280020B126
:10247000BDF82810C6A001F01DFC0AA80321002207
:102480000592CDE90621089005214FF4007233230F
:10249000C948CDE90321CDE9010300910023C74AD2
:1024A000C7A1CB4805F0FCF9BDF8280020B1BDF864
:1024B0002810C8A001F0FEFB0AA803210022059203
:1024C000CDE90621089005214FF400723323CB4853
:1024D000CDE902320491019006200023C84AC9A127
:1024E0000090BB48CC3005F0DBF9BDF8280020B1E6
:1024F000BDF82810C7A001F0DDFB0AA803210022C7
:102500000592CDE90621089005204FF40071332291
:10251000CA4BCDE90132CDE9031008200023C84A97
:10252000C8A10090CB4805F0BBF9BDF8280020B148
:10253000BDF82810C8A001F0BDFB0AA803210022A5
:102540000592CDE90621089005204FF40071332251
:10255000CB4BCDE90132CDE9031009200023C94A54
:10256000C9A10090CC4805F09BF9BDF8280020B126
:10257000BDF82810C9A001F09DFB0AA80321002284
:102580000592CDE90621089005204FF40071332211
:10259000CE4BCDE90132CDE903100A200023CC4A0D
:1025A000CCA10090CF4805F07BF9BDF8280020B100
:1025B000BDF82810CCA001F07DFB0AA80321002261
:1025C0000592CDE90621089005204FF4807119226B
:1025D000D04BCDE90132CDE9031007200023CE4ACC
:1025E000CEA10090D24805F05BF9BDF8280020B1DB
:1025F000BDF82810CFA001F05DFB0AA8032100223E
:102600000592CDE9062108904020C1003322D54B28
:10261000CDE90132CDE903100B200023D24AD3A12A
:102620000090D74805F03CF9BDF8280020B1BDF86E
:102630002810D4A001F03EFB0AA803210022059235
:10264000CDE9062108904020C1003322D74BCDE9C7
:102650000132CDE903100C200023D54AD5A100900A
:10266000D94805F01DF9BDF8280020B1BDF82810A3
:10267000D6A001F01FFB0AA8032100220592CDE994
:1026800006210890402001016622DA4BCDE9013293
:10269000CDE9031014200023D74AD8A10090DB48CD
:1026A00005F0FEF8BDF8280020B1BDF82810D8A02C
:1026B00001F000FB0AA8032100220592CDE90621C2
:1026C00008904020C1003322DB4BCDE90132CDE937
:1026D000031015200023D94AD9A10090DC4805F049
:1026E000DFF8BDF8280020B1BDF82810D9A001F00E
:1026F000E1FA0AA8032100220592CDE906210890FB
:102700004020C1003322DD4BCDE90132CDE9031079
:1027100016200023DA4ADBA10090DE4805F0C0F85D
:10272000BDF8280020B1BDF82810DBA001F0C2FAE6
:102730000BB000BDAC270020712E00084170702046
:102740005561727431205265637600007C2400204C
:102750004661696C20746F206372656174652075D1
:10276000617274312072656376207461736B205BD3
:1027700025645D0A0D000000AC2F0020ED2E00083E
:10278000417070205561727432205265637600008A
:102790004661696C20746F20637265617465207591
:1027A000617274322072656376207461736B205B92
:1027B00025645D0A0D000000AC370020B52F00082D
:1027C0004170702055617274332052656376000049
:1027D000142600204661696C20746F206372656165
:1027E000746520756172743320726563762074613C
:1027F000736B205B25645D0A0D000000AC3F002078
:10280000AD300008417070205561727434205265FB
:10281000637600004661696C20746F2063726561A5
:1028200074652075617274342072656376207461FA
:10283000736B205B25645D0A0D00000010560020BC
:10284000211D00084170702041646320636F6E7623
:1028500065727400445500204661696C20746F20D5
:102860006372656174652061646320636F6E766571
:102870007274207461736B205B25645D0A0D000027
:10288000DC5E0020E12D00084170702054656D7001
:10289000204374726C000000105E00204661696C79
:1028A00020746F206372656174652074656D706556
:1028B000726174756520636F6E74726F6C207461E1
:1028C000736B205B25645D0A0D00000078480020D2
:1028D000BD1D0008417070204D6F746F7231204330
:1028E00074726C00AC4700204661696C20746F20E4
:1028F000637265617465206D6F746F72203120633F
:102900006F6E74726F6C207461736B205B25645DF5
:102910000A0D000044510020192D0008417070205C
:102920005465652056616C7665204374726C0000B6
:10293000785000204661696C20746F206372656175
:102940007465207465652076616C766520636F6EB2
:1029500074726F6C207461736B205B25645D0A0D6B
:1029600000000000A8670020DD22000841707020F0
:10297000526F746174652056616C766500000000CA
:10298000DC6600204661696C20746F2063726561AB
:10299000746520726F746174652076616C76652051
:1029A0007461736B205B25645D0A0D0074700020F8
:1029B0005123000841707020537972696E67652059
:1029C00050756D7000000000A86F00204661696CB2
:1029D00020746F2063726561746520737972696E0B
:1029E00067652070756D70207461736B205B256462
:1029F0005D0A0D0040790020751E000841707020AE
:102A00007072696D6520666C6F77000074780020C5
:102A10004661696C20746F20637265617465207013
:102A200072696D6520666C6F77207461736B205BD3
:102A300025645D0A0D0000000C8A0020751D000849
:102A400041707020636C65616E20666C6F7700006A
:102A5000408900204661696C20746F206372656153
:102A6000746520636C65616E20666C6F772074619D
:102A7000736B205B25645D0A0D000000D892002076
:102A8000292E0008417070207465737420666C6F85
:102A9000770000000C9200204661696C20746F2062
:102AA000637265617465207465737420666C6F77FA
:102AB000207461736B205B25645D0A0D00000000CB
:102AC0000EB500F0E1FB01F021FB00F0D5FB044660
:102AD00046480068B4FBF0F5284605F033FE02A82E
:102AE00004F054FE01F080FB00F03CFB4FF4E131B8
:102AF000032000F07FFF4FF49641012000F07AFFA1
:102B00004FF41651022000F075FF4FF4E131002020
:102B100000F070FFFFF76EFCFFF7AAF902AB052289
:102B200033A1364804F066F8BDF8080020B1BDF8BE
:102B3000081033A001F0BEF802AB05223BA12F48DC
:102B4000303004F057F8BDF8080020B1BDF8081087
:102B50003AA001F0AFF802AB052243A1274860304C
:102B600004F048F8BDF8080020B1BDF8081041A0F5
:102B700001F0A0F802AB052249A12048903004F0F2
:102B800039F8BDF8080020B1BDF8081047A001F0E1
:102B900091F851A20021544800F0C4FC53A2002136
:102BA000544800F0BFFC54A20021554800F0BAFC84
:102BB0000AF0B4FD002000F041FC0AF0DFFD0646FB
:102BC000314650A001F076F8002009F0D7FA0BE06A
:102BD000002000F055FC02A800210B460122CDE99F
:102BE0000010084605F06CFCF2E7000060D9000810
:102BF000526F4D736751756575650000D89A002056
:102C00004661696C20746F2063726561746520721F
:102C100076206D65737361676520717565756520D4
:102C20005B253032785D0A0D000000005379725048
:102C3000756D705175657565000000004661696CC1
:102C400020746F2063726561746520737972206DE2
:102C5000657373616765207175657565205B2530E7
:102C600032785D0A0D0000004D7472315175657542
:102C7000650000004661696C20746F2063726561B5
:102C80007465206D74722031206D657373616765A2
:102C9000207175657565205B253032785D0A0D0001
:102CA00054696D696E675175657565004661696C3B
:102CB00020746F20637265617465207072696D6540
:102CC000206D657373616765207175657565205B3F
:102CD000253032785D0A0D004D6F746F7231537478
:102CE0006174757300000000A89C0020526F56614B
:102CF0006C766500D09C0020537972696E67650020
:102D0000F89C0020466C617368204944205B2530A4
:102D100032785D0A0D0000000EB526A000F0CAFF53
:102D200000240BE0002004EB84012C4A505404EBF7
:102D300084011144C1F80100601CC4B2032CF1DB12
:102D400036E0002429E004EB84002449085C10B339
:102D500004EB84000844D0F80100E0B104EB8400E7
:102D60000844D0F80100401E04EB84011B4A1144C2
:102D7000C1F8010004EB840011460844D0F80100BA
:102D800048B9611CC8B200210AF010FA002004EB17
:102D90008401124A5054601CC4B2032CD3DB02A835
:102DA000002164230A46CDE90010084605F088FB9F
:102DB000C7E700004372656174696E6720546565FA
:102DC0002056616C766520436F6E74726F6C205470
:102DD00061736B732E2E2E0A0D000000709D002073
:102DE0000EB507A000F066FF08E002A800216423EA
:102DF0000A46CDE90010084605F062FBF5E7000041
:102E00004372656174696E672054656D70657261A7
:102E10007475726520436F6E74726F6C20546173A9
:102E20006B732E2E2E0A0D000EB507A000F042FF88
:102E300009E002A800210B461E22CDE90010012165
:102E4000002005F03DFBF4E74372656174696E672D
:102E5000207465737420666C6F7720436F6E747294
:102E60006F6C205461736B732E2E2E0A0D000000C0
:102E7000ADF5027D00BF16A000F01CFF002426E087
:102E8000002001900A2301AA02A900F027FF0546AD
:102E9000BDF8040000280ADD42A90819BDF8042085
:102EA00002A9FDF7B8FBBDF80400204484B2012D4F
:102EB0000DD0042C03DB214642A801F0F3FC002CCA
:102EC00005DD4FF4807142A8FDF73EFC0024D7E7F2
:102ED0004372656174696E67205561727431205464
:102EE00061736B732E2E2E0A0D0000008CB000BF94
:102EF00027A000F0DFFE002449E0002003900A2311
:102F000003AA04A9012000F0E9FE0546BDF80C0063
:102F100000280ADD09A90819BDF80C2004A9FDF74D
:102F20007AFBBDF80C00204484B2012D2FD0002C78
:102F30002DDD00260020039009E009A8BDF80C1043
:102F4000405C0644BDF80C00401C80B20390BDF804
:102F50000C00A042F1DBAEB1C4EB0420B04211D0B2
:102F60000120124908704C70224609A90F48801CA4
:102F7000FDF751FB02A8002344220C4900900C48A5
:102F800003F0D0FF002009900A900B900024B4E7D2
:102F90004372656174696E672055617274322054A2
:102FA00061736B732E2E2E0A0D000000989B00207B
:102FB000D89A00208CB000BF33A000F07BFE002424
:102FC00060E000200390322303AA04A9022000F04D
:102FD00085FE0546BDF80C0000280ADD09A9081980
:102FE000BDF80C2004A9FDF716FBBDF80C00204429
:102FF00084B2012D46D0002C44DD00260020039031
:1030000009E009A8BDF80C10405C0644BDF80C00AE
:10301000401C80B20390BDF80C00A042F1DB66B307
:10302000C4EB0420B04228D09DF824002F280FD1F3
:10303000224609A904A8FDF733FB224604A90DF195
:103040002500FDF7E8FAFF208DF82400601C84B20B
:103050000120144981F84400084680F84540224682
:1030600009A94630FDF7D7FA02A8002344220D49EA
:10307000443100900C4803F055FF002009900A905D
:103080000B9000249DE700004372656174696E67D0
:10309000205561727433205461736B732E2E2E0A87
:1030A0000D000000989B0020089B0020ADF5027DDC
:1030B00000BF17A000F0FEFD002427E000200190D3
:1030C0000A2301AA02A9032000F008FE0546BDF864
:1030D000040000280ADD42A90819BDF8042002A94D
:1030E000FDF799FABDF80400204484B2012D0DD0FB
:1030F000042C03DB214642A801F0D4FB002C05DDA3
:103100004FF4807142A8FDF71FFB0024D6E70000B2
:103110004372656174696E67205561727431205421
:1031200061736B732E2E2E0A0D00000001463029AC
:1031300005DB392903DCA1F13000C0B27047412919
:1031400005DB462903DCA1F14100C0B2F6E76129A5
:1031500005DB662903DCA1F16100C0B2EEE70020C7
:10316000ECE7000008B50121082008F081FC2020D0
:10317000ADF8000003208DF8020010208DF8030048
:1031800069463A4801F0F4FA2020384910310860C5
:103190000121402008F06CFC2020ADF80000032045
:1031A0008DF8020010208DF803006946304801F0C8
:1031B000DFFA20202E49103108600121802008F01C
:1031C00057FC0220ADF8000003208DF8020010200B
:1031D0008DF803006946274801F0CAFA0220254904
:1031E000143108600121802008F042FC0120ADF874
:1031F000000003208DF8020010208DF803006946BE
:103200001C4801F0B5FA01201A4914310860012167
:10321000802008F02DFC0420ADF8000003208DF87C
:10322000020010208DF803006946124801F0A0FA50
:1032300004201049143108600121802008F018FC96
:103240000820ADF8000003208DF8020010208DF852
:1032500003006946074801F08BFA08200549103140
:10326000086000F091FE00F0DFFE08BD000C014098
:1032700000180140001C014000B585B0684608F008
:1032800065FC019805B000BD10B500F083F808F0AA
:1032900005FC4FF4803008F0F5FC08F057FD0128DC
:1032A00033D1102001F04AFA022001F055FA002033
:1032B00008F0DCFC002008F01DFD4FF4806008F0F1
:1032C0000DFD4FF4E0114FF4803008F025FD012092
:1032D00008F01CFD00BF392008F0A2FC0028FAD03D
:1032E000022008F027FD00BF08F0B8FC0828FBD139
:1032F000012008F0CDFBFFF7BFFF0549B0FBF1F05F
:103300000449086008460068086000F06FF810BDC6
:1033100040420F001400002010B504463C2C04D29B
:1033200004F11001C8B200F0CFFF10BD10B5FCF7DA
:10333000DFFF10BD10B504463C2C04D204F110018F
:10334000C8B201F07DF810BD70B50446002600BF7C
:1033500000BFFCF7D1FF064600BF00F071FF00BFC1
:1033600003F0C0F800BF00F085FF00BF3046FCF757
:10337000C7FF00BF00BF3C2C04D2044850F82450C3
:1033800005B1A84703F0C4F870BD00008801002013
:103390007047000010B5002404E00449204600F006
:1033A00007F8641C3C2CF8D310BD000091330008D2
:1033B00070B504460D4600263C2C14D200BF00BF59
:1033C000FCF79AFF064600BF00F03AFF00BF064830
:1033D00040F8245000BF00F04DFF00BF3046FCF71E
:1033E0008FFF00BF00BF70BD8801002008B501211C
:1033F000082008F03DFB2020ADF8000003208DF8E8
:10340000020010208DF8030069460A4801F0B0F967
:103410000121402008F02CFB2020ADF80000032003
:103420008DF8020010208DF803006946024801F073
:103430009FF908BD000C01400018014010B504467A
:1034400024B1012C0BD0022C13D10DE020210A480D
:1034500001F01DFA2021094801F019FA0AE02021A3
:10346000054801F014FA05E02021044801F00FFAA4
:1034700000E000BF00BF10BD000C0140001801407B
:1034800070B5054625B1012D23D0022D43D131E081
:10349000224801F0F8F9044604F0200020B9202168
:1034A0001E4801F0F6F903E020211C4801F0EFF975
:1034B0001B4801F0E8F9044604F0200020B920215F
:1034C000174801F0E6F903E02021154801F0DFF983
:1034D00022E0124801F0D7F9044604F0200020B998
:1034E00020210E4801F0D5F903E020210B4801F01E
:1034F000CEF911E00A4801F0C6F9044604F02000B4
:1035000020B92021064801F0C4F903E02021044835
:1035100001F0BDF900E000BF00BF70BD000C01402C
:1035200000180140F8B506460C4615466B46224683
:103530002946304603F032FEBDF8000008B10020F5
:10354000F8BD0120FCE738B504466A460021204654
:1035500003F0A4FFBDF8000008B1002038BD012031
:10356000FCE700007CB505460C464FF47A706043DA
:1035700009490968B0FBF1F601A800231A46314653
:103580000090284603F07CFEBDF8040008B100203E
:103590007CBD0120FCE7000060D900082DE9FE4356
:1035A0000446002005460646074680461548B4FBFB
:1035B000F0F01FFA80F81348B4FBF0F100FB11445F
:1035C0004EF66020B4FBF0F087B24EF66020B4FBFC
:1035D000F0F100FB11444FF47A70B4FBF0F086B2C6
:1035E0004FF47A70B4FBF0F100FB114502A8002102
:1035F0002B463246CDE900103946404604F060FFC4
:10360000BDE8FE8380EE360040285BD022DC222815
:1036100045D013DC062836D007DC80B301282FD034
:1036200002282ED004286AD12CE00C282CD00E2899
:103630002BD00F282AD0202861D12FE0A0F1230120
:103640000C295CD2DFE801F02C2D2E2F5B5B303192
:1036500032335B34A0F141011D2950D2DFE801F083
:1036600033343536374F4F4F4F4F384F4F393A4F2E
:103670003B3C3D3E3F404F4F41424344450000BF2D
:1036800000BF00BF00BF00BF00BF00BF1D494969A8
:103690000122824011431B4A516130E000BF00BF4C
:1036A00000BF00BF00BF00BF00BF00BF00BF00BF22
:1036B00014498969A0F12002012393401943114A5A
:1036C00091611CE000BF00BF00BF00BF00BF00BF92
:1036D00000BF00BF00BF00BF00BF00BF00BF00BFF2
:1036E00000BF00BF00BF00BF00BF0649C969A0F10D
:1036F0004002012393401943024AD16100BF00BF39
:103700007047000000100240F8B500244D4E04EB55
:1037100084004D4901EBC0070121304608F0FBFB56
:10372000012841D100226021304608F0FDFB3046DF
:1037300008F00AFCC5B2454830F81400444931F895
:10374000141088422BDD434800EB0420424931F835
:1037500014104554404830F81400401C3E4921F8EC
:103760001400084630F814003C4931F8141088421F
:103770000ADB00227121304608F0D6FB6A460021A0
:10378000384603F08BFE0AE05521304608F0DFFB97
:103790002E4830F81400401C2C4921F81400012256
:1037A0007121304608F0C0FB0221304608F0B3FB1F
:1037B000012846D100227121304608F0B5FB23488C
:1037C00030F81400224931F81410884211DA2148E7
:1037D00000EB04201D4A32F81420815C304608F0CA
:1037E000B6FB1A4830F81400401C184921F81400A0
:1037F00022E0164830F81400154931F814108842B8
:103800001AD1164830F8140000280BDD5521304637
:1038100008F09DFB0D4830F81400401C0B4921F8BE
:10382000140009E000227121304608F07DFB6A4651
:103830000021384603F032FE01226021304608F0B4
:1038400073FBF8BD0030014000A600207801002085
:103850007401002000A40020800100207C010020D1
:103860002DE9F84300260124514F04EB840051490F
:1038700001EBC0080121384608F04DFB012845D175
:1038800000226021384608F04FFB384608F05CFB08
:10389000C5B2494830F81400484931F8141088423C
:1038A0002CDD474800EB0420464931F814104554FC
:1038B000444830F81400401C424921F814000846DE
:1038C00030F81400404931F8141088420BDB002214
:1038D0007121384608F028FB6A460021404603F073
:1038E000DDFD01260AE05521384608F030FB32485C
:1038F00030F81400401C304921F81400002E54D137
:1039000001227121384608F00FFB4EE002213846B3
:1039100008F001FB012848D100227121384608F047
:1039200003FB254830F81400244931F8141088426C
:1039300011DA234800EB04201F4A32F81420815C7E
:10394000384608F004FB1C4830F81400401C1A49A3
:1039500021F8140023E0184830F81400174931F812
:10396000141088421BD1184830F8140000280BDDD1
:103970005521384608F0EBFA0F4830F81400401C87
:103980000D4921F814000AE000227121384608F0A0
:10399000CBFA6A460021404603F080FD012626B995
:1039A00001226021384608F0BFFABDE8F883000024
:1039B0000038004000A6002078010020740100209B
:1039C00000A40020800100207C01002010B5002010
:1039D00000F0CEF910BD10B5012000F0C9F910BDFE
:1039E00010B5022000F0C4F910BD10B5032000F09E
:1039F000BFF910BD70B58CB004460E46621C93A191
:103A00006846FCF7A9FCC4EB4411944A02EB810020
:103A10006A460021FFF786FD621C91A16846FCF70B
:103A20009BFCC4EB44118D4A02EB810101F128009B
:103A30006A460021FFF776FD621C8DA16846FCF7FF
:103A40008BFCC4EB4411854A02EB810101F150006B
:103A50006A460121FFF766FD07960020ADF82000B9
:103A6000ADF82200ADF82400ADF828000C20ADF828
:103A700026000020ADF81400ADF816004FF40070D9
:103A8000ADF818000020ADF81A0004EBC40101EBFA
:103A900004117A4A1144D1F81500FFF7B5FD202032
:103AA000FFF7B2FD764951F82410764A52F82420E7
:103AB00041EA0200012107F0DBFF734830F81400EF
:103AC000ADF82C0003208DF82E0018208DF82F0063
:103AD0006E4951F824000BA900F04AFE6C4830F8FA
:103AE0001400ADF82C0004208DF82F00694951F81E
:103AF00024000BA900F03CFE04EBC40101EB04110F
:103B00005E4A1144086807A909F028F804EBC401CB
:103B100001EB0411594A1144086805A908F0CEFFC9
:103B200004EBC40101EB0411544A1144086801215B
:103B300008F0D5FF04EBC40101EB04114F4A114416
:103B40000868002240F2266108F0E2FF04EBC4019D
:103B500001EB0411494A11440868002240F2277120
:103B600008F0D6FF04EBC40101EB0411434A1144F1
:103B70000868402108F0BFFF054623E004EBC401BC
:103B800001EB04113D4A1144086840F2266108F037
:103B900086FF04EBC40101EB0411384A11440868A4
:103BA00040F2266108F072FF0A20FFF7F7FC04EBF1
:103BB000C40101EB0411314A11440868402108F0A6
:103BC0009AFF0546012DD9D03CB933492520FFF78E
:103BD000EFFB2520FFF7AEFB1CE0012C07D12F499E
:103BE0002620FFF7E5FB2620FFF7A4FB12E0022CBE
:103BF00007D12B492720FFF7DBFB2720FFF79AFB94
:103C000008E0032C06D127493420FFF7D1FB3420EC
:103C1000FFF790FB244901EBC4108021FCF772FDF3
:103C2000224800210160416021480160416004EBAD
:103C3000C40101EB0411114A11440868012240F249
:103C4000255108F065FF0CB070BD0000536572256A
:103C500064205478205761697400000078020020C5
:103C60005365722564205278205761697400000002
:103C70005365722564204C6F636B00009CD800086C
:103C80003CD800084CD8000834D800082800002090
:103C90002CD8000818000020CD390008D7390008BA
:103CA000E1390008EB3900086804002048000020D2
:103CB000500000200FB400B597B019A80190512111
:103CC00002A8019B189AFCF72DFB0020019002A985
:103CD00000F024F917B05DF814FB00002DE9F0475F
:103CE00004460E4615461F4600203070B046288018
:103CF00031E01AE01A4800EBC4101A4931F81410E8
:103D0000405C08F8010B2888401C2880154830F8D2
:103D10001400401C134921F81400084630F8140020
:103D2000802802DB002021F814000F4830F814002E
:103D30000C4931F814108842DCD1C4EB44110B4A11
:103D400002EB810101F128003946FFF70BFC8146A7
:103D5000012800D000E0CCE700BF4846BDE8F0876E
:103D60006804002050000020480000207802002055
:103D700070B5044604EBC40101EB0411334A11444D
:103D80000868202108F0B7FE0646012E32D104EB68
:103D9000C40101EB04112D4A1144086808F04AFFE0
:103DA0002B4901EBC4112B4A32F8142088542948BE
:103DB00030F81400401C274921F81400084630F858
:103DC0001400802802DB002021F8140004EBC40159
:103DD00001EB04111D4A1144086840F2255108F016
:103DE0005EFEC4EB44111C4A02EB810101F1280084
:103DF000FFF7A9FB04EBC40101EB0411134A1144C2
:103E00000868402108F077FE0546012D1DD104EB1E
:103E1000C40101EB04110D4A11440868002240F26C
:103E2000266108F075FE04EBC40101EB0411074A9A
:103E30001144086840F2266108F031FEC4EB4411D9
:103E4000054A02EB8100FFF77EFB70BD9CD800089D
:103E500068040020480000207802002070B5044665
:103E60000D4604EBC40101EB0411134A1144086828
:103E7000012240F2266108F04BFE04EBC40101EB85
:103E800004110D4A11440868294608F0D8FEC4EB15
:103E900044110A4A02EB81000021FFF763FB04EBA7
:103EA000C40101EB0411044A11440868002240F2E5
:103EB000266108F02DFE70BD9CD800087802002015
:103EC0002DE9F04106460C46154604B10DB9BDE892
:103ED000F081C6EB4611104A02EB810101F150005E
:103EE0000021FFF73FFB0746012F00D0EFE706E078
:103EF00014F8011B3046FFF7B1FF681E85B2002D94
:103F0000F6DCC6EB4611044A02EB810101F15000D8
:103F1000FFF719FB00BFDAE77802002070B505460D
:103F20000C4604B970BDC5EB4511164A02EB810180
:103F300001F150000021FFF715FB0646012E00D0CD
:103F4000F0E711E020780A2809D10D212846FFF773
:103F500085FF0A212846FFF781FF641C04E014F85E
:103F6000011B2846FFF77AFF20780028EAD1C5EB2D
:103F70004511044A02EB810101F15000FFF7E3FA19
:103F800000BFCFE77802002008B50121080307F041
:103F90006FFD0121042007F06BFD1020ADF800003B
:103FA00003208DF8020010208DF8030069461D489B
:103FB00000F0DEFB10201B491431086001210420B1
:103FC00007F056FD2020ADF8000003208DF8020018
:103FD00018208DF803006946124800F0C9FB012142
:103FE000042007F045FD4020ADF8000003208DF8C7
:103FF000020004208DF8030069460A4800F0B8FB6F
:104000000121042007F034FD8020ADF800000320DA
:104010008DF8020018208DF803006946014800F071
:10402000A7FB08BD0008014008B50121880307F07F
:104030000FFD0121082007F01BFD4FF48050ADF863
:10404000000003208DF8020010208DF8030069465F
:104050001F4800F08DFB4FF480501D49143108605B
:104060000121082007F004FD4FF40050ADF80000D6
:1040700003208DF8020018208DF8030069461448CB
:1040800000F076FB0121082007F0F2FC4FF480409D
:10409000ADF8000003208DF8020004208DF8030025
:1040A00069460B4800F064FB0121082007F0E0FCA2
:1040B0004FF40040ADF8000003208DF802001820F6
:1040C0008DF803006946024800F052FB08BD00006D
:1040D000000C014010B50121054808F0EDF810B1C1
:1040E000002001F0BDFF0121014808F0A1F810BD3A
:1040F0000004004000BFFEE710B51520FFF724F9CB
:1041000010BD10B51620FFF71FF910BD10B500F057
:1041100073FA00F003F800F06BFA10BD70B50026DA
:104120000020184908801849088018490860184973
:104130000860184908601849086018490860002498
:1041400000BFFCF7D9F8064600BF00250BE00020B1
:104150001049086000F074F800F08CF80D48006811
:104160000444681C85B2002DF1D00C480460002086
:10417000084908600849086000BF3046FCF7C0F8ED
:1041800000BF70BD480100204A0100204C01002002
:1041900050010020580100205C0100205401002043
:1041A00001460846044A1268904203D9024A12683E
:1041B000801A00E0002070475401002070B50025EF
:1041C00000BFFCF799F8054600BF0648046800BF29
:1041D0002846FCF795F800BF2046FFF7E1FF0646AA
:1041E000304670BD5801002070B50025FFF7E6FF8E
:1041F000044600BFFCF780F8054600BF00200449D4
:10420000086000BF2846FCF77BF800BF204670BD61
:104210005801002070B5002500BFFCF76DF8054679
:1042200000BF0648046800BF2846FCF769F800BFD5
:104230002046FFF7B5FF0646304670BD5C01002002
:1042400010B509480088401C0749088007480088C5
:1042500018B900F0FBF90649086004480088401CC2
:104260000249088010BD0000480100204A010020DA
:104270004C01002010B50F480088401E0D490880F1
:1042800008460088A0B900F0E1F90B49086008462B
:1042900000680A490968441A09480068A04201D226
:1042A0000748046007480068A04201D2054804603E
:1042B00010BD00004A010020500100204C010020E8
:1042C000580100205C0100202DE9F04104464FF028
:1042D0000008102C7CD2DFE804F0080E0F10142D1B
:1042E00046090A0B0C11120D135F00BF00BF00BF7F
:1042F00000BF00BF9EE000BF00BF00BF00BF00BF07
:1043000098E000BF00BFFBF7F7FF804600BFFFF754
:1043100097FF00BF4948006820F480304749086093
:1043200000BFFFF7A7FF00BF4046FBF7E9FF00BF54
:1043300000BF7FE000BF00BFFBF7DEFF804600BF8D
:10434000FFF77EFF00BF3D48006820F400303B4986
:10435000086000BFFFF78EFF00BF4046FBF7D0FFAD
:1043600000BF00BF66E000BF00BFFBF7C5FF80468F
:1043700000BFFFF765FF00BF3048006820F48020D1
:104380002E49086000BFFFF775FF00BF4046FBF7EE
:10439000B7FF00BF00BF4DE000BF00BFFBF7ACFFA1
:1043A000804600BFFFF74CFF00BF4FF0E0200069E0
:1043B00020F001004FF0E021086100BFFFF75AFF35
:1043C00000BF4046FBF79CFF00BF00BF32E0FFE7A5
:1043D0004FF0E0204068401C102101EB4010C6B2B5
:1043E000B44226DAA4F11000C11700EBD161C1F389
:1043F0004715C11700EBD1614911A0EB4111CFB2B4
:1044000000BF00BFFBF778FF804600BFFFF718FF33
:1044100000BF0120B840A90001F1E021C1F88001EE
:1044200000BFFFF727FF00BF4046FBF769FF00BF53
:1044300000BF00BF00BFBDE8F081000024ED00E038
:104440002DE9F04104464FF00008102C7CD2DFE843
:1044500004F0080E0F10142D46090A0B0C11120D52
:10446000135F00BF00BF00BF00BF00BF9EE000BFE2
:1044700000BF00BF00BF00BF98E000BF00BFFBF758
:104480003BFF804600BFFFF7DBFE00BF49480068E6
:1044900040F480304749086000BFFFF7EBFE00BFE3
:1044A0004046FBF72DFF00BF00BF7FE000BF00BF0D
:1044B000FBF722FF804600BFFFF7C2FE00BF3D486A
:1044C000006840F400303B49086000BFFFF7D2FEAF
:1044D00000BF4046FBF714FF00BF00BF66E000BF0F
:1044E00000BFFBF709FF804600BFFFF7A9FE00BF32
:1044F0003048006840F480202E49086000BFFFF774
:10450000B9FE00BF4046FBF7FBFE00BF00BF4DE019
:1045100000BF00BFFBF7F0FE804600BFFFF790FE34
:1045200000BF4FF0E020006940F001004FF0E021B3
:10453000086100BFFFF79EFE00BF4046FBF7E0FEAC
:1045400000BF00BF32E0FFE74FF0E0204068401CB2
:10455000102101EB4010C7B2BC4226DAA4F11000D2
:10456000C11700EBD161C1F34715C11700EBD16151
:104570004911A0EB4111CEB200BF00BFFBF7BCFE5A
:10458000804600BFFFF75CFE00BF0120B040A900DD
:1045900001F1E021C1F8000100BFFFF76BFE00BF91
:1045A0004046FBF7ADFE00BF00BF00BF00BFBDE847
:1045B000F081000024ED00E010B5002400BF00BF32
:1045C000FBF79AFE044600BFFFF73AFE00BF10213A
:1045D0000648FCF797F800BFFFF74CFE00BF2046E7
:1045E000FBF78EFE00BF00BF10BD0000A01F002023
:1045F00010B5FFF7E1FF10BD10B5002002490860BB
:1046000000F00AF810BD00004401002001490860D4
:10461000704700004401002010B50A48006840F0CF
:104620008070084908600020074948600846006813
:1046300040F001000860FEF71FFE04462046FFF729
:10464000E5FF10BDFCED00E0001000E0014840680F
:1046500070470000001000E070B502464AF2010504
:1046600000200023002400BF13E016787040521C85
:1046700000240AE000F0010626B140104AF20106CB
:10468000704000E04010661CF4B2082CF2DB5E1CA7
:10469000B3B28B42E9DB70BD10B50B20FEF754FEC0
:1046A00010BD10B50C20FEF74FFE10BD10B50D204B
:1046B000FEF74AFE10BD10B50E20FEF745FE10BDF8
:1046C00010B50F20FEF740FE10BD10B51020FEF70C
:1046D0003BFE10BD10B51120FEF736FE10BD704731
:1046E00010B50620FEF730FE10BD10B52820FEF7ED
:1046F0002BFE10BD10B50720FEF726FE10BD10B52D
:104700000820FEF721FE10BD10B50920FEF71CFEA3
:1047100010BD10B50A20FEF717FE10BD10B517200A
:10472000FEF712FE10BD01784278027041707047AA
:1047300010B50420FEF708FE10BD00000549096809
:1047400021F01001034A116011460968014311600C
:10475000704700000020024001460020034A106814
:1047600000F038000843106070470000002002404D
:104770002DE9F041024600250026002000230024F8
:10478000002791F803C00CF00F0591F803C00CF05E
:10479000100CBCF1000F03D091F802C04CEA0505E3
:1047A00091F800C0BCF1000F31D0146800202BE05C
:1047B0004FF0010C0CFA00F3B1F800C00CEA03064C
:1047C0009E4220D183004FF00F0C0CFA03F7BC433C
:1047D00005FA03FC4CEA040491F803C0BCF1280F6D
:1047E00006D14FF0010C0CFA00FCC2F814C00AE02C
:1047F00091F803C0BCF1480F05D14FF0010C0CFA41
:1048000000FCC2F810C0401C0828D1D31460B1F8D5
:1048100000C0BCF1FF0F34DD546800202EE000F131
:10482000080C4FF0010808FA0CF3B1F800C00CEACC
:1048300003069E4221D183004FF00F0C0CFA03F7C0
:10484000BC4305FA03FC4CEA040491F803C0BCF134
:10485000280F05D100F1080C08FA0CF8C2F81480F2
:1048600091F803C0BCF1480F07D100F1080C4FF0DC
:10487000010808FA0CF8C2F81080401C0828CED3B2
:104880005460BDE8F0810146C86880B2704741615C
:1048900070470161704700000148007870470000D0
:1048A000720100202DE9F04782460F46042F02DAFC
:1048B0000620BDE8F087554601260BE0A95D701E75
:1048C000285C01EB00204AF65521884200D103E024
:1048D000701C86B2BE42F1DB00BF012E0FDDB81B9B
:1048E00008280ADDB81B421CA819411E2846FBF700
:1048F00092FE701E381A87B201E00620D9E72C46D6
:10490000A878E97800EB01201FFA80F8B81F40452D
:1049100007D0217AB4F805000122FDF7D5F9062069
:10492000C7E74146281DFFF797FE8146B81E295C60
:10493000781E285C01EB0021494507D0217AB4F8A4
:1049400005000222FDF7C0F90220B2E7E079102845
:1049500001D0012000E0002038B1217AB4F8050030
:104960000322FDF7B1F90320A3E7217AB4F805008B
:104970000022FDF7A9F93946204608F073F998E7B7
:104980002DE9F04F93B0074697F800907E78BC1C55
:104990000021084601F070FB44F6206B4FF0000A3E
:1049A0004FF00108207A202806D0212827D022287D
:1049B0003DD0232878D157E00C2E02DB607A5028B6
:1049C00005DD8121002001F057FB4FF00008B8F110
:1049D000010F13D1002000F0E7FC50B11E2301228B
:1049E0004FF4C851002001F0F3F805464FF0010ADA
:1049F00004E0617A002000F0C1FE054663E00E2E5F
:104A000002DB607A502805DD8121002001F034FBB3
:104A10004FF00008B8F1010F08D1A37AE07A03EB58
:104A20000021627A002000F0A1FF05464BE00F2E26
:104A300005DB207B012802DC607A502805DD81211E
:104A4000002001F019FB4FF00008B8F1010F0AD166
:104A500094F80AC0E07A0CEB0021637A227B0020F4
:104A600001F0B6F805462EE00D2E02DB607A5028E4
:104A700005DD8121002001F0FFFA4FF00008A07A47
:104A800038B9627A8F484168002000F06FFF054610
:104A900011E0A07A012808D1627A8A488168002052
:104AA00000F064FF054606E006E08121002001F0E9
:104AB000E3FA4FF0000806E08021002001F0DCFA64
:104AC0004FF0000800BF00BFB8F1010F31D0012145
:104AD000002001F0EDFA01208DF80800002000F020
:104AE00093FDC0B28DF80900002000F08DFD00128A
:104AF0008DF80A003246B91C0DF10B00FBF78BFD57
:104B0000B9F1010F0AD12079012807D1F31C217ACC
:104B1000B4F8050002AA07F0B3F904E012AA0021D4
:104B2000694802F0BBFC69A0FFF7C4F813B0BDE808
:104B3000F08F0026ABE012A800231A4659460090D9
:104B40006B4802F09DFBBAF1000F57D04FF0000AFE
:104B50004FF4FA70FEF722FD002000F025FCE8B1CA
:104B60008421002001F088FA0D21002001F0A0FA34
:104B700001208DF80800002000F046FDC0B28DF83D
:104B80000900002000F040FD00128DF80A00032605
:104B900058A0FFF78FF84FF000087CE012AA002120
:104BA000534802F0C7FC617A002000F0E7FD05469B
:104BB000012D6CD02946002001F05EFA0C21002066
:104BC00001F076FA01208DF80800002000F01CFDAD
:104BD000C0B28DF80900002000F016FD00128DF81B
:104BE0000A003246B91C0DF10B00FBF714FD052637
:104BF00036A0FFF75FF84FF000084CE0BDF8480022
:104C000038BB0121002001F053FA002000F0FCFC29
:104C100070B900208DF8080000F0DAFCC0B28DF801
:104C20000900002000F0D4FC00128DF80A000EE00C
:104C300001208DF80800002000F0E6FCC0B28DF8DD
:104C40000900002000F0E0FC00128DF80A000326A5
:104C50001AE08221002001F00FFA0B21002001F060
:104C600027FA01208DF80800002000F0CDFCC0B22A
:104C70008DF80900002000F0C7FC00128DF80A0032
:104C8000032626A0FFF716F84FF0000803E0B8F15E
:104C9000010F3FF450AF00BFB9F1010F0AD12079E5
:104CA000012807D1217AB4F80500334602AA07F09B
:104CB000E7F804E012AA0021034802F0EFFB00BF6E
:104CC00034E70000CCA30020A89C00207061726132
:104CD0006D65746572206572726F7220666F7220E6
:104CE0006D6F746F722031206D73670A0D000000C4
:104CF000D8A300206D6F746F7220312063616E2025
:104D00006E6F74206C6561766520686F6D65206FCD
:104D100070746963616C0A0D000000006D6F746F40
:104D20007220312072756E2074696D656F75740A1A
:104D30000D0000002DE9F04F97B007464422394698
:104D400002A8FBF768FC02AD95F800906E78AC1CE9
:104D5000002007F08FF841F2707B4FF0010A207AB3
:104D6000102804D011280BD0122834D12EE0A6F13F
:104D70000B0082B204F109010120FFF7A1F830E035
:104D8000607A482802D107F013F81EE0607A5128B3
:104D900004D107F041F84FF47A7B16E0607A562888
:104DA00004D107F046F84FF47A7B0EE0607A0028D1
:104DB00006DD607A192803DC607A07F006F804E063
:104DC000412007F057F84FF0000A0AE007F024F8F6
:104DD0004FF47A7B05E0402007F04CF84FF0000AD2
:104DE00000BF00BFBAF1000F2FD1012007F02EF84D
:104DF00001208DF84C0010208DF84D0006F0D2FFF8
:104E0000C0B28DF84E003246B91C0DF14F00FBF7D1
:104E100002FCB9F1010F0AD12079012807D1F31C56
:104E2000217AB4F8050013AA07F02AF807E0B9F1CF
:104E3000020F04D116AA0021544802F02FFB54A0FF
:104E4000FEF738FF17B0BDE8F08F16A80021442305
:104E50000A46CDE900105946554801F043FF804607
:104E6000BDF85800002866D145468DF84C00012653
:104E7000207A102809D16A78A91C0DF14D00FBF7A2
:104E8000CAFB68783044C6B251E0607A56280ED129
:104E9000687800284BDD6878421EA91C0DF14D0092
:104EA000FBF7B9FB6878401E3044C6B23FE0207A79
:104EB000122802D0607A512813D16878012836DD93
:104EC00000208DF84C00E878FEF730F90246A8780B
:104ED000FEF72CF942EA0010C0B28DF84D00022610
:104EE00025E0687803281EDBE878FEF71FF9024604
:104EF000A878FEF71BF942EA0010C0B28DF84D0009
:104F00009DF84D10183188B206F0B4FF01208DF8DD
:104F10004C0010208DF84D0006F044FFC0B28DF813
:104F20004E00032603E000208DF84C0001260120EE
:104F300006F08CFF14E0422006F09CFF0B2006F0E8
:104F400085FF01208DF84C0010208DF84D0006F0F3
:104F500029FFC0B28DF84E00032616A0FEF7AAFE68
:104F6000B9F1010F0AD12079012807D1217AB4F8CB
:104F70000500334613AA06F083FF04E016AA0021B9
:104F8000024802F08BFA00BF5CE70000D09C0020D2
:104F9000706172616D65746572206572726F7220E6
:104FA000666F722076616C7665206D73670A0D00FE
:104FB000D89A0020526F2076616C76652072756EEB
:104FC0002074696D656F75740A0D00002DE9F04F4E
:104FD0009BB080464422414602A8FBF71CFB02AD71
:104FE00095F800B06E78AC1C002008F007FB4FF479
:104FF000FA7A0020139001201490207A162806D007
:1050000017280DD018281DD0192845D12FE0A6F15A
:105010000B0082B204F109010220FEF751FF41E0CA
:105020000E2E07D1E37AA27A4FF47A71002008F0AD
:1050300069F906E003231A464FF47A71002008F05C
:1050400061F92FE00E2E05D0212008F0D7FA0020BC
:1050500014900BE0A17AE07A01EB002080B200907E
:10506000637A00220121104608F024FA1AE00E2E7D
:1050700005D0212008F0C2FA002014900BE0A17A9C
:10508000E07A01EB002080B20090637A00220221D6
:10509000104608F085F905E0202008F0AFFA00205E
:1050A000149000BF00BF149801282DD001208DF866
:1050B000540010208DF8550008F01EF9C0B28DF88C
:1050C0005600324608F102010DF15700FBF7A3FA32
:1050D000BBF1010F0AD12079012807D1F31C217AF5
:1050E000B4F8050015AA06F0CBFE04E01AAA0021C8
:1050F0006A4802F0D3F96AA0FEF7DCFD0C2008F044
:1051000069FA1BB0BDE8F08FB0E01AA80021442373
:105110000A46CDE9001051466B4801F0E3FD074611
:10512000BDF86800002872D13D46E8782F281ED1CE
:10513000687960281BD1002008F060FA012008F08F
:1051400049FA00208DF854004FF00109207A162802
:1051500009D16A78A91C0DF15500FBF75CFA687853
:10516000484400F0FF0959A0FEF7A4FD7FE0E8786D
:105170002F282AD16879402827D15046FEF70EFA09
:1051800013985044139057491398884216D92220F7
:1051900008F034FA0B2008F01DFA01208DF85400B5
:1051A00010208DF8550008F0A7F8C0B28DF8560011
:1051B0004FF003094CA0FEF77DFD58E0002008F0F9
:1051C000CCF851A0FEF776FD50E0E8782F281FD1EB
:1051D000687940281CDD68794F2819DC29791D3948
:1051E00088B208F00BFA012008F0F4F901208DF8DC
:1051F000540010208DF8550008F07EF8C0B28DF8EC
:1052000056004FF0030945A0FEF754FD2EE016E0CE
:10521000232008F0F3F9012008F0DCF901208DF8D3
:10522000540010208DF8550008F066F8C0B28DF8D3
:1052300056004FF0030941A0FEF73CFD17E0222085
:1052400008F0DCF90B2008F0C5F901208DF85400B6
:1052500010208DF8550008F04FF8C0B28DF85600B8
:105260004FF003093DA0FEF725FD00E04DE700BF2C
:10527000BBF1010F0AD12079012807D1217AB4F8B6
:1052800005004B4615AA06F0FBFD04E01AAA002112
:10529000024802F003F900BF33E70000F89C002049
:1052A000706172616D65746572206572726F7220D3
:1052B000666F7220737972696E67652070756D70A4
:1052C000206D73670A0D0000089B002053797269F6
:1052D0006E67652070756D702072756E206F6B0A39
:1052E0000D000000400D0300537972696E67652060
:1052F00070756D702072756E2074696D656F757450
:105300002046310A0D000000584C505F51756572FF
:10531000795374617475730A0D00000053797269D2
:105320006E67652070756D702072756E2074696D82
:10533000656F75742046320A0D000000537972695A
:105340006E67652070756D70206572726F72207265
:105350006573706F6E73650A0D0000005379726992
:105360006E67652070756D702072756E2074696D42
:10537000656F75742046300A0D00000000BFFEE71F
:1053800010B52020FDF7E0FF10BD10B51F20FDF780
:10539000DBFF10BD10B52220FDF7D6FF10BD10B504
:1053A0002120FDF7D1FF10BD014621B903488068D7
:1053B00000F0010070470020FCE7000000100140F1
:1053C000014649B90548806800F00200022801D171
:1053D000012070470020FCE70020FAE700100140A0
:1053E0002DE9F04186B00646884614460020A07696
:1053F0002077E0766077C4F81E00C4F82200D4F865
:10540000050018B9012006B0BDE8F081002700258D
:1054100027E006F5807000EB85000068D4F81510D1
:10542000884200D31FE006EB4500008808EB4501E9
:10543000098808440744D4F80500B84200D212E0B5
:105440001A34206900EB45000088A1680844A06078
:105450002078401C2070A078401CA0701A3C681C6A
:10546000C5B2802DD5DB00BF802D01D10020CAE759
:10547000A07E18B9012084F82F0002E0022084F8F1
:105480002F00237FA27E04A101A8FAF765FF01A8DF
:10549000FEF710FC0120B6E75B41472C25642C2564
:1054A000645D2C0070B506460C4694F82F00012868
:1054B0000AD194F82F00052805D0D4F8050010B9BA
:1054C000052084F82F0070BD94F82F00022836D1F3
:1054D000E57ED4F8260000EB45000088D4F81E10C5
:1054E0000844D4F8091088426FD81A34E06800EBF9
:1054F00045000088616808446060681CC5B214F803
:105500001A09A8420CDCE07E012803DDE07E401E83
:10551000607701E000206077032084F82F0054E0DA
:10552000E07E401CE076D4F8260000F58070E27E34
:1055300000EB82000168304606F0BCFF45E094F8BD
:105540002F00032822D1D4F80500D4F82210884275
:105550003BD8D4F82600617F00EB41000088D4F8E6
:10556000221088420BD8D4F82600617F00EB41005E
:105570000088D4F82210081AC4F8220002E00020A3
:10558000C4F82200042084F82F001EE094F82F00B5
:1055900004281AD1D4F82A00617F00EB410000886A
:1055A000D4F80510884210D9607F00280DDD607F97
:1055B000401E6077D4F82A0000F58070627F00EB0F
:1055C00082000168304606F075FF00BF7BE70000EF
:1055D0000146012901DB0020704701EB810000EB4F
:1055E000C100034B03EB8002B2F8010080B2F3E785
:1055F00098A30020014601EB4100024A12F8300056
:105600007047000080A300200146012901DB002033
:10561000704701EB4100024A02EBC0004089F7E706
:1056200080A300200146012902DA0248405C70474D
:105630000020FCE76C0100200146002001B9082091
:105640007047000010B590B00C224FF4007168460E
:1056500008F06AF86C464FF458400D49886020887D
:1056600010B120880C2802D9002010B010BD0821EC
:10567000201DFEF7F1FF6188884201D00020F4E789
:10568000034861680160A16841600120EDE7000006
:10569000CCA3002038B50446012C01DD002038BD24
:1056A000002C60D10121082006F0E2F90120ADF8BC
:1056B000000018208DF8030003208DF802006946D1
:1056C0002A48FFF755F80121802006F0D1F94FF460
:1056D0008050ADF8000010208DF8030003208DF8F5
:1056E000020069462248FFF743F80121802006F0B6
:1056F000BFF94FF40060ADF8000010208DF80300F2
:1057000003208DF8020069461948FFF731F80020A0
:1057100000F024F917491D20FDF74AFE1D20FDF772
:1057200009FE0121102006F0A3F90120ADF80000C8
:1057300003208DF8020048208DF8030069460E48CA
:10574000FFF716F80121102006F092F90220ADF8BB
:10575000000003208DF8020048208DF80300694600
:105760000548FFF705F8012099E70000000C01400B
:10577000001C0140D5400008001001402DE9F8430D
:1057800004460E46012C06DB8121204600F074FC05
:105790000020BDE8F883052E05DA8121204600F0BF
:1057A0006BFC0020F5E704EB4400634901EB0027A4
:1057B00004EB4400614901EB002804EB840000EB9A
:1057C000C4005F4901EB800504EB840000EBC400DA
:1057D00001EB800090F82F0001281DD004EB84001D
:1057E00000EBC40001EB800090F82F00022813D0DA
:1057F00004EB840000EBC40001EB800090F82F0064
:10580000032809D004EB840000EBC40001EB800006
:1058100090F82F00042805D18821204600F02CFCA8
:105820000020B6E72046FFF707FF704300EB80003B
:10583000800004EB840101EBC401414A02EB8101C9
:10584000C1F81500012004EB44013E4A02F8310082
:10585000002004EB840101EBC401394A02EB810111
:1058600081F82F0004EB4400364A02EBC0000169C6
:105870002046884704EB840101EBC401304A02EB67
:105880008101487604EB44002E4901EBC000D0F8BA
:10589000010004EB840101EBC40102EB8101C1F8BA
:1058A0000500002004EB840101EBC40102EB81013F
:1058B00081F82E0004EB840101EBC40102EB8101AD
:1058C000C1F8090004EB840101EBC40102EB810182
:1058D000C87604EB840101EBC40102EB8101487737
:1058E0000021204600F0C8FB2A4641463846FFF713
:1058F00077FD01281AD195F82E10204600F0F0FB14
:10590000D5F82600D0F80011204606F02BFD2046E1
:1059100000F01CF824B96A4600210B4801F00AFE89
:105920000021204600F0A8FB012032E7812120461B
:1059300000F0A2FB00202CE7809D002080A000202A
:1059400098A3002080A30020D8A3002010B504460F
:105950001CB90121204606F07BFC10BD10B50446A1
:105960001CB90021204606F073FC10BD2DE9F84358
:1059700004460D461746012C06DB8121204600F027
:105980007BFB0020BDE8F883052F05DA8121204646
:1059900000F072FB0020F5E704EB4400874901EBBF
:1059A000002804EB4400864901EB002904EB840045
:1059B00000EBC400834901EB80063078012805D054
:1059C0008321204600F058FB0020DBE704EB840035
:1059D00000EBC4007B4901EB800090F82F00012808
:1059E0001DD004EB840000EBC40001EB800090F8B4
:1059F0002F00022813D004EB840000EBC40001EB5D
:105A0000800090F82F00032809D004EB840000EBFD
:105A1000C40001EB800090F82F00042805D18821F4
:105A2000204600F029FB0020ACE72046FFF704FEEB
:105A3000784300EB8000800004EB840101EBC4019B
:105A4000604A02EB8101C1F81500032004EB440118
:105A50005D4A02F83100002004EB840101EBC4012F
:105A6000584A02EB810181F82F0004EB840000EB1F
:105A7000C400114601EB8000D0F80100A8421AD9F9
:105A800004EB840000EBC40001EB8000D0F80100BF
:105A9000401B04EB840101EBC40102EB8101C1F85E
:105AA0000500002004EB840101EBC40102EB81013D
:105AB00081F82E003EE004EB840000EBC400414975
:105AC00001EB8000D0F80100A8421BD204EB840057
:105AD00000EBC40001EB8000D0F80100281A04EBB1
